{
  "contractName": "LANDProxy",
  "abi": [
    {
      "constant": true,
      "inputs": [],
      "name": "proxyOwner",
      "outputs": [
        {
          "name": "",
          "type": "address"
        }
      ],
      "payable": false,
      "stateMutability": "view",
      "type": "function"
    },
    {
      "constant": true,
      "inputs": [
        {
          "name": "",
          "type": "address"
        },
        {
          "name": "",
          "type": "address"
        }
      ],
      "name": "updateManager",
      "outputs": [
        {
          "name": "",
          "type": "bool"
        }
      ],
      "payable": false,
      "stateMutability": "view",
      "type": "function"
    },
    {
      "constant": true,
      "inputs": [
        {
          "name": "",
          "type": "address"
        }
      ],
      "name": "latestPing",
      "outputs": [
        {
          "name": "",
          "type": "uint256"
        }
      ],
      "payable": false,
      "stateMutability": "view",
      "type": "function"
    },
    {
      "constant": true,
      "inputs": [
        {
          "name": "",
          "type": "address"
        }
      ],
      "name": "authorizedDeploy",
      "outputs": [
        {
          "name": "",
          "type": "bool"
        }
      ],
      "payable": false,
      "stateMutability": "view",
      "type": "function"
    },
    {
      "constant": true,
      "inputs": [],
      "name": "currentContract",
      "outputs": [
        {
          "name": "",
          "type": "address"
        }
      ],
      "payable": false,
      "stateMutability": "view",
      "type": "function"
    },
    {
      "constant": true,
      "inputs": [],
      "name": "owner",
      "outputs": [
        {
          "name": "",
          "type": "address"
        }
      ],
      "payable": false,
      "stateMutability": "view",
      "type": "function"
    },
    {
      "constant": true,
      "inputs": [
        {
          "name": "",
          "type": "uint256"
        }
      ],
      "name": "updateOperator",
      "outputs": [
        {
          "name": "",
          "type": "address"
        }
      ],
      "payable": false,
      "stateMutability": "view",
      "type": "function"
    },
    {
      "constant": false,
      "inputs": [
        {
          "name": "newContract",
          "type": "address"
        },
        {
          "name": "data",
          "type": "bytes"
        }
      ],
      "name": "upgrade",
      "outputs": [],
      "payable": false,
      "stateMutability": "nonpayable",
      "type": "function"
    },
    {
      "constant": true,
      "inputs": [],
      "name": "estateRegistry",
      "outputs": [
        {
          "name": "",
          "type": "address"
        }
      ],
      "payable": false,
      "stateMutability": "view",
      "type": "function"
    },
    {
      "constant": false,
      "inputs": [
        {
          "name": "_newOwner",
          "type": "address"
        }
      ],
      "name": "transferOwnership",
      "outputs": [],
      "payable": false,
      "stateMutability": "nonpayable",
      "type": "function"
    },
    {
      "payable": true,
      "stateMutability": "payable",
      "type": "fallback"
    },
    {
      "anonymous": false,
      "inputs": [
        {
          "indexed": true,
          "name": "newContract",
          "type": "address"
        },
        {
          "indexed": false,
          "name": "initializedWith",
          "type": "bytes"
        }
      ],
      "name": "Upgrade",
      "type": "event"
    },
    {
      "anonymous": false,
      "inputs": [
        {
          "indexed": false,
          "name": "_prevOwner",
          "type": "address"
        },
        {
          "indexed": false,
          "name": "_newOwner",
          "type": "address"
        }
      ],
      "name": "OwnerUpdate",
      "type": "event"
    }
  ],
  "bytecode": "0x6080604052600280546001805433600160a060020a0319918216811790925591821681179091161790556107ec806100386000396000f3006080604052600436106100a35763ffffffff7c0100000000000000000000000000000000000000000000000000000000600035041663025313a2811461017457806307ecec3e146101a55780631e375901146101e057806329ffab3b14610213578063721d7d8e146102345780638da5cb5b146102495780639d40b8501461025e578063c987336c14610276578063e387d31a146102dd578063f2fde38b146102f2575b600054600160a060020a0316151561012b576040805160e560020a62461bcd02815260206004820152602d60248201527f49662061707020636f646520686173206e6f74206265656e207365742079657460448201527f2c20646f206e6f742063616c6c00000000000000000000000000000000000000606482015290519081900360840190fd5b6000805460408051602036601f810182900482028301820190935282825261017294600160a060020a03909416939192908190840183828082843750610313945050505050565b005b34801561018057600080fd5b506101896103c0565b60408051600160a060020a039092168252519081900360200190f35b3480156101b157600080fd5b506101cc600160a060020a03600435811690602435166103cf565b604080519115158252519081900360200190f35b3480156101ec57600080fd5b50610201600160a060020a03600435166103ef565b60408051918252519081900360200190f35b34801561021f57600080fd5b506101cc600160a060020a0360043516610401565b34801561024057600080fd5b50610189610416565b34801561025557600080fd5b50610189610425565b34801561026a57600080fd5b50610189600435610434565b34801561028257600080fd5b5060408051602060046024803582810135601f8101859004850286018501909652858552610172958335600160a060020a031695369560449491939091019190819084018382808284375094975061044f9650505050505050565b3480156102e957600080fd5b50610189610652565b3480156102fe57600080fd5b50610172600160a060020a0360043516610661565b61031c826107b8565b1515610398576040805160e560020a62461bcd02815260206004820152602960248201527f5468652064657374696e6174696f6e2061646472657373206973206e6f74206160448201527f20636f6e74726163740000000000000000000000000000000000000000000000606482015290519081900360840190fd5b600080825160208401856127105a03f43d604051816000823e8280156103bc578282f35b8282fd5b600154600160a060020a031681565b601260209081526000928352604080842090915290825290205460ff1681565b600d6020526000908152604090205481565b60116020526000908152604090205460ff1681565b600054600160a060020a031681565b600254600160a060020a031681565b600f60205260009081526040902054600160a060020a031681565b600154600160a060020a031633146104b1576040805160e560020a62461bcd02815260206004820152601160248201527f556e617574686f72697a65642075736572000000000000000000000000000000604482015290519081900360640190fd5b6000805473ffffffffffffffffffffffffffffffffffffffff1916600160a060020a0384161781556040517f439fab91000000000000000000000000000000000000000000000000000000008152602060048201818152845160248401528451309463439fab91948794849360449092019290860191908190849084905b8381101561054757818101518382015260200161052f565b50505050905090810190601f1680156105745780820380516001836020036101000a031916815260200191505b5092505050600060405180830381600087803b15801561059357600080fd5b505af11580156105a7573d6000803e3d6000fd5b5050505081600160a060020a03167fe74baeef5988edac1159d9177ca52f0f3d68f624a1996f77467eb3ebfb316537826040518080602001828103825283818151815260200191508051906020019080838360005b838110156106145781810151838201526020016105fc565b50505050905090810190601f1680156106415780820380516001836020036101000a031916815260200191505b509250505060405180910390a25050565b601054600160a060020a031681565b600154600160a060020a031633146106c3576040805160e560020a62461bcd02815260206004820152601160248201527f556e617574686f72697a65642075736572000000000000000000000000000000604482015290519081900360640190fd5b600160a060020a0381161515610723576040805160e560020a62461bcd02815260206004820152600d60248201527f456d707479206164647265737300000000000000000000000000000000000000604482015290519081900360640190fd5b600154600160a060020a0382811691161415610789576040805160e560020a62461bcd02815260206004820152601260248201527f416c726561647920617574686f72697a65640000000000000000000000000000604482015290519081900360640190fd5b6001805473ffffffffffffffffffffffffffffffffffffffff1916600160a060020a0392909216919091179055565b6000903b11905600a165627a7a7230582031a82b6faf1f06ae3f73841c32e6bd5c3a5441a79786bae01040a0d68521a8310029",
  "source": "pragma solidity ^0.4.18;\n\nimport \"../Storage.sol\";\nimport \"../upgradable/Proxy.sol\";\n\n\ncontract LANDProxy is Storage, Proxy {\n}\n",
  "sourcePath": "/home/spoons/diligence/mythx-qa/land/contracts/upgradable/LANDProxy.sol",
  "compiler": {
    "name": "solc",
    "version": "0.4.24+commit.e67f0147.Emscripten.clang"
  },
  "schemaVersion": "3.0.8",
  "updatedAt": "2019-04-30T11:34:15.038Z",
  "devdoc": {
    "methods": {}
  },
  "userdoc": {
    "methods": {}
  }
}